:020000040800F2
:10000000502F00209D010008233D0008C731000843
:10001000213D000879090008B352000800000000E3
:10002000000000000000000000000000F54B000888
:10003000470A0008000000003D410008F94D000893
:10004000B7010008B7010008B7010008B7010008B0
:10005000B7010008B7010008B7010008B7010008A0
:10006000B7010008B7010008B7010008B701000890
:10007000B7010008B7010008B7010008B701000880
:10008000B7010008B7010008B7010008B701000870
:10009000B7010008B7010008B7010008B701000860
:1000A000B7010008B7010008B7010008B701000850
:1000B000E94E0008F54E0008B7010008B701000836
:1000C000B7010008B7010008B7010008B701000830
:1000D000B7010008B7010008B7010008B701000820
:1000E000B7010008B7010008B7010008B701000810
:1000F000B7010008B7010008B7010008B701000800
:10010000B7010008B7010008B7010008B7010008EF
:10011000B7010008B7010008B7010008B7010008DF
:10012000B7010008B7010008B7010008E509000899
:10013000B7010008B7010008B7010008B7010008BF
:10014000B7010008B7010008B7010008B7010008AF
:10015000B7010008B7010008B7010008B70100089F
:10016000B7010008B7010008B7010008B70100088F
:10017000B7010008B7010008B7010008000000003F
:10018000B7010008B7010008DFF80CD000F086FBCB
:1001900000480047C1730008502F002006488047E0
:1001A00006480047FEE7FEE7FEE7FEE7FEE7FEE75C
:1001B000FEE7FEE7FEE7FEE7CD4E000889010008F6
:1001C0002DE9F05F0546002092469B46884606468C
:1001D000814640241BE0284641464746224600F01F
:1001E00076FA53465A46C01A914110D31146184622
:1001F000224600F05DFA2D1A67EB01084F462246B1
:100200000120002100F054FA17EB00094E41201E96
:10021000A4F10104DFDC484631462A464346BDE8E6
:10022000F09F40EA01039B0703D009E008C9121FB1
:1002300008C0042AFAD203E011F8013B00F8013BA0
:10024000521EF9D27047D2B201E000F8012B491ECC
:10025000FBD270470022F6E710B513460A46044663
:100260001946FFF7F0FF204610BD2DE9FE4F8046EE
:1002700081EA0300C00F0C46009021F0004123F0FA
:100280000045B8EB0200A94105D240462146904600
:100290001C460B46024623F00040104347D0270D72
:1002A000C7F30A00C3F30A510290401A0190402894
:1002B0006BDAC3F3130040F4801B0098924620B120
:1002C0000023D2EB030A63EB0B0B01985946C0F1F4
:1002D0004002504600F0ECF906460D46504659469D
:1002E000019A00F004FA10EB08006141002487EA4B
:1002F000115284EAE7731A4340D0009A62B3019A1C
:10030000012A4FEA075215DC001B61EB02014FF096
:10031000004202EA0752CDE90042001C41F580117B
:1003200032462B4600F03BFA03B0BDE8F08F404662
:100330002146F9E7001B61EB0201001C41F5801327
:1003400000185B412018A2F5001747EB030140EAB3
:10035000D570B6196D4111E06D084FEA360645EAD1
:10036000C0754FEA0752001B61EB0201001C41F50A
:10037000801149084FEA30000019514132462B469E
:1003800003B0BDE8F04F00F0FBB900980122400037
:100390000023D0EB020263EBE073009821464FEAA2
:1003A000E074B8EB000061EB0401E9E783F000437F
:1003B0005BE781F0004158E72DE9FE4F81EA030435
:1003C00004F0004421F0004100944FF0000B23F0B2
:1003D000004350EA01045ED052EA03045BD0C3F349
:1003E0000A54C1F30A552C44A4F2F3340194A0FB3F
:1003F0000254C1F3130141F48011C3F3130343F416
:10040000801301FB024400FB034E840A970A44EA6E
:10041000815447EA8357A4FB076802958D0A05FBC0
:1004200007854FEA932C04FB0C542705029D4FEAE5
:10043000065847EA1637B5EB08056EEB070C870E32
:10044000920E47EA811742EA8312A7FB0201B6EB3C
:100450000B0164EB00042B0D43EA0C335E1844EBF4
:100460001C50DA465146E7FB0201C5F313044FEA7C
:100470000B3343EA14534FEA0432019C43EA060368
:10048000A4F10C040294009CCDE900B400F087F9BB
:1004900003B0BDE8F08F00200146F9E72DE9F04DEB
:1004A00081EA030404F0004B21F0004514464FF0AC
:1004B000000A23F0004150EA050220D054EA01026C
:1004C0001DD0C5F30A570246C5F31303C1F3130049
:1004D000C1F30A5640F4801543F48013A7EB0608D5
:1004E000101BD64608F2FD3873EB050002D308F165
:1004F000010801E092185B41B8F1000F03DA002017
:100500000146BDE8F08D00204FF480110646844678
:100510000EE0171B73EB050705D3121B63EB0503F6
:1005200006434CEA010C49084FEA300092185B413F
:1005300050EA0107EDD152EA030012D082EA04002A
:1005400083EA0501084305D0101BAB4106D2012206
:10055000002306E000224FF0004302E06FF00102AA
:1005600053101AEB06004CEB085110EB0A0041EB5C
:100570000B01BDE8F04D00F003B90EB5C10F80EAE4
:10058000E0700844CA07002140F233438DE80E00B2
:100590000A460B4600F003F903B000BD0EB540F269
:1005A000334102910021CDE900110A460B4600F0CB
:1005B000F6F803B000BD70B5C1F30A5201F0004572
:1005C0000024C1F3130140F2FF3341F480119A4239
:1005D00001DA002070BD40F233439A42A2F2334266
:1005E00003DC524200F073F800E090402C43F1D05D
:1005F000404270BDC1F30A5210B5C1F3130140F27D
:10060000FF3341F480119A4201DA002010BD40F21C
:1006100033439A42A2F2334203DC524200F057F8CD
:1006200010BD904010BD00F0004230F000400AD0F4
:10063000C10D01F56071C0F3160042EA0151C20814
:1006400040071143704700200146704701F0004306
:1006500030B421F0004150EA010206D00A0DA2F5A3
:100660006072C1F31301002A02DC30BC0020704725
:10067000440F44EAC104C100E01830BC00EBC25092
:1006800000F047B830B50B46014600202022012477
:1006900009E021FA02F59D4205D303FA02F5491B50
:1006A00004FA02F52844151EA2F10102F1DC30BD66
:1006B000202A04DB203A00FA02F100207047914022
:1006C000C2F1200320FA03F3194390407047202A17
:1006D00004DB203A21FA02F00021704721FA02F3EC
:1006E000D040C2F120029140084319467047202AA9
:1006F00006DBCB17203A41FA02F043EAE07306E04A
:1007000041FA02F3D040C2F1200291400843194659
:1007100070470029A8BF7047401C490008BF20F05F
:100720000100704710B4B0FA80FC00FA0CF050EAF7
:10073000010404BF10BC704749B1CCF1200421FA78
:1007400004F411FA0CF118BF012121430843A3EB73
:100750000C01CB1D4FEA00614FEA102042BF002080
:1007600010BC704700EBC35010440029A4BF10BC5C
:100770007047401C490008BF20F0010010BC7047C2
:1007800010B5141E73F1000408DA401C41F1000199
:1007900092185B411A4301D120F0010010BD2DE9F0
:1007A000F04D92469B4611B1B1FA81F202E0B0FAE7
:1007B00080F220329046FFF77BFF04460F4640EA66
:1007C0000A0041EA0B0153465A46084313D011462A
:1007D00053EA010019D0C8F140025046FFF777FFF5
:1007E00005460E46504659464246FFF761FF08430C
:1007F00005D0012004E020463946BDE8F08D0020F8
:10080000054346EAE0762C4337430A986305E40A39
:10081000A0EB08000022FD0A44EA47540A3002D542
:1008200000200146E9E7010510196941DDE90845A5
:1008300000196941BDE8F04DA2E7C1F30A52C1F3C6
:10084000130140F2FF3341F480119A4202DA002092
:100850000146704740F233439A42A2F2334202DC2F
:100860005242FFF734BFFFF723BF000030B5041E2C
:1008700071F1000404DB4FF00044404264EB0101DD
:10088000141E73F1000405DB1C464FF00043524276
:1008900063EB0403994208BF904230BD064C074DFC
:1008A00006E0E06840F0010394E807009847103440
:1008B000AC42F6D3FFF76CFC9C8E0008BC8E00089F
:1008C00080B50448022100F07FFFB0FA80F04009B3
:1008D00080BD00BF001402400146264801F0A6BDBD
:1008E00080B5244801F0B2FD043818BF012080BD56
:1008F00010B500F015F801280ED11E4801F0B8FD22
:100900000446000609D11B484FF4006101F06EFC5B
:10091000002818BF012400E00124E0B210BD00BF90
:10092000E0B501208DF80700FFF7CAFF10B90020DD
:100930008DF807009DF807008CBD00001CB514461B
:100940000A4601460B480093234601F0D7FE0028D3
:1009500018BF01201CBD00BF1CB514460A46014645
:1009600004480093234601F0A9FF002818BF012086
:100970001CBD00BF98250020FEE7392898BF3A2902
:1009800005D3392805D8602903D9A92209E0D02246
:1009900007E0392339223A2938BF6022602898BFFE
:1009A0001A46114401EB0010C0B270472DE9F8431C
:1009B000089F0B4C98461546814621604145C8BFAB
:1009C000BDE8F8834E46AE4206DC2188B0B23A4616
:1009D00000F0BCFA0136F6E72068411CEDE700BFE5
:1009E0006C000020014800F0B5BC00BF10250020BD
:1009F00010B501686FF00F02182308A452FA81F2B3
:100A0000B2FBF3F3E35C40F2FF34A1435F2A88BFFB
:100A10000431C0E91713084610BD00BF00061016C8
:100A200000061016B0B5046880682568402808469E
:100A300025F480252560636008BF1046A06008BFCC
:100A40000A46E260B0BD70472DE9F84F074644F210
:100A50000820DFF8E0A098460B4691460E4600902D
:100A60003846D047781C48F2104B4A4684B2701C76
:100A7000CDF800B085B2204629462B46D04744F237
:100A8000082031463A46434600903846D047204633
:100A9000294622464346CDF800B0D0474FF6FF74B2
:100AA000384641464A4643460094D0474846314678
:100AB0004A4643460094D047BDE8F88F2DE9FC47ED
:100AC000DFF870801C464FF6FF790B4615460E4640
:100AD0000746CDF80090C047384631463A4623468F
:100AE000CDF80090C047611E781C48F210492A4694
:100AF00089B280B2CDF800900B46C04744F2082A74
:100B0000384621462A462346CDF800A0C047701C2F
:100B10002346CDF8009081B2681E80B20246C047DD
:100B2000284631462A462346CDF800A0C047BDE8F6
:100B3000FC8700BF9D0E0008EFF3108072B6FEE741
:100B4000002200F001B80000B0B50D4C0346607AF9
:100B500008B10120B0BD657A00206055657A04EBCC
:100B600085056B60637A23441A72627A531C3032B3
:100B7000637242F63A73C8700A70A1F80130B0BDD2
:100B800054040020000000002DE9F84F04AF2DEDC3
:100B9000047B80460B20894600EB810020F0070093
:100BA000ADEB000BDD46544E00240D464FF0000A1D
:100BB000A14513D0304600F05FFB30460A2100F01B
:100BC00015FB304600F03EFA800505D5304600F0B2
:100BD0003BFA82444BF824000134E9E7DBF80000DB
:100BE00001464DB15BF8042B8A4228BF1146904262
:100BF00028BF1046013DF4E7AAEB00000022401A8E
:100C0000A9F1020188F80020B0FBF1F0FFF7C6FC63
:100C10009FED310B03F0DDF89FED310B03F0D9F8B8
:100C20009FED310B03F0D5F8FFF710FDFFF7FBFC4C
:100C300002460B46FFF719FBFFF7DCFC00F0010151
:100C40000844FFF7ABFC9FED2A0B03F0C2F8FFF757
:100C5000FDFC9FED2A0A08EE100AB4EE408AF1EE80
:100C600010FAA8BFB0EE408A18EE100AFFF7DBFCBE
:100C700005460E4622A140462A46334606F038FD78
:100C800082B09FED220A6FF4FC602149CDF800800C
:100C90004FF6FF73B4EE408AB2EE0E0AF1EE10FA90
:100CA000B4EE408AC8BF1F20F1EE10FAC8BF01465B
:100CB0008AB269203C2100F02FF802B0A7F1180495
:100CC00014A02A463346A546BDEC028B01B0BDE810
:100CD000F04F06F0FDBC00BF000000000000303FF8
:100CE0000000000000005940999999999999F13FA5
:100CF000000000000000E03FC82400200000C842BF
:100D0000252E30662525202020000000000070429E
:100D100000F8FFFF256600002DE9F04F89B004912F
:100D20008346D01A12999846914618BF012080F048
:100D300001078026084601900078002800F0A58071
:100D400041B2CDF81CB0B1F1FF3F30DD504A4FF059
:100D5000000B202802EB00114FF0000002F5F872A2
:100D600088BF01EA02000890BBF1100F1AD0049866
:100D7000494900250BEB000A089858440C5C082DE3
:100D80000DD003F01EF808D1424600281FFA8AF160
:100D900018BF4A46079803F053F80135EFE70BF107
:100DA000010BE1E7DDF81CB00820012169E00BF13F
:100DB00010000BF108010022089001980291132AFB
:100DC0005DD8007810B90198407810B101980132CF
:100DD000F5E700230392182BF8D004982D4900253D
:100DE000059303EB000A03EB430008448478069064
:100DF000082D0FD002F0E5FF0AD100280BEB05000B
:100E000042461FFA8AF180B218BF4A4600F09EF8A7
:100E10000135EDE70698029D002490F803B0082CF8
:100E200014D026FA04F000EA0B00B0FA80F1490968
:100E3000394209D1002842461FFA8AF118BF4A46B2
:100E4000281980B200F082F80134E8E70698DDF84E
:100E50001CB000250479082D0DD002F0B2FF08D196
:100E6000424600281FFA8AF118BF4A46089802F045
:100E7000E7FF0135EFE7059B039A0133ABE7182045
:100E8000022183440198084455E709B0BDE8F08F7A
:100E900000FE0F00C5870008D48100082DE9F84F37
:100EA0001E4690460C46054602F052FC311BA8EB4C
:100EB00005064FF0FF3A4FF0FF30B1F1FF3FC8BFDA
:100EC0004FF0010A8846B6F1FF3FC8BF01200090ED
:100ED000002901D5C8F10008002E00D576424FEA5E
:100EE000480B4FEA4609464516DDABEB06080027DE
:100EF000B74229DC0A9AA8B2A1B200F027F808EBA1
:100F00000B00B8F1FF3FC4BFA0EB090054440099A7
:100F1000013780460D44EBE7A9EB0806002747455B
:100F200012DC0A9AA8B2A1B200F010F806EB090090
:100F3000B6F1FF3F5444C8BFA0EB0B000099C8BFF7
:100F40000D4401370646EAE7BDE8F88F10B51446B0
:100F500002F0FEFB2046BDE8104002F01DBC000080
:100F6000F8B500220092C26B012A01D1022166E08D
:100F70000122C2630A680A2A09D393B25B0013FAFA
:100F800082F3A3F11E04036803F10C0504E0036877
:100F900002EB420403F1100507262F68A64027EA5A
:100FA00006062E608E6806FA04F42E6834432C6020
:100FB0004C68062C05D804EB840403F13401053C8D
:100FC0000BE004EB84050C2C87BF03F12C01A5F189
:100FD000410403F13001A5F123041F250E68A5404B
:100FE00026EA05050D6095B205FA04F40D682C4358
:100FF0000C606249A1F54174A3421ED1122A04D1AA
:101000000A6842F480020A6017E022F00103102B04
:1010100013D10B68102A43F400030B600DD1C849AB
:10102000C84A0968B1FBF2F101EB81014900009166
:10103000009911B100990139F9E70021C16308460F
:10104000F8BD00BF006C70470068C06C70470000BE
:10105000002840D070B50446006C28B9204600F046
:1010600095F80020E0636064206CC00635D4206CE5
:1010700041F202118843414902302064086820F49B
:101080004030086094E80D0025690E6832430A601C
:10109000416821F480714160416841EA0521416065
:1010A000416821F04071416041681943344B41600F
:1010B000816821F400618160E16882681143816088
:1010C000816821F070618160A26A81689A4206D1CC
:1010D00021F040510CE00120704701204AE011430B
:1010E0008160816821F040518160E16A826811432A
:1010F0008160816821F002018160226AA1698368B0
:1011000043EA4101816041686AB141F400611D4ACE
:101110004160416821F460414160616A02EB413104
:101120004268114301E021F400614160164DC16A3B
:1011300021F47001C162E2696169236B05EB02521F
:10114000C56A2A43C262826822F4007282608268A1
:1011500042EA43228260826822F48062826082686E
:1011600042EA81210122816000206064216C62F3E7
:10117000010121640021E16370BD00BF042301402F
:101180000100000F00E0FFFF0000F0FF10B586B087
:10119000044601A81421FFF75DF821686A488142DE
:1011A0001FD10021104A00F560400091536943F4BB
:1011B00080735361536903F480730093009B009123
:1011C000136843F001031360126802F001020092F9
:1011D00003910321029101210191009901A900F0DD
:1011E00027FA06B010BD00BF30380240F8B50446FB
:1011F00000680D468168490502D58068C00526D47F
:1012000000F0ECFA06466F1C2068016889070FD4CD
:10121000002FF9D025B100F0E1FA801BA842F3D9E4
:101220000020E063206C40F0040020640320F8BD3F
:101230006FF012010160216C41F40071216481683A
:1012400011F0405F01D1A16949B10020F8BD002033
:10125000E063206C40F0200020640120F8BDC16AEA
:1012600011F4700F02D080684005EED402F064FEE5
:10127000EBD402F0C2FDE8E781B000210091C16B20
:10128000012901D1022058E00121C16301688A6867
:10129000D20710D18A682B4B42F001028A60844A3F
:1012A0001268B2FBF3F202EB42020092009A12B112
:1012B000009A013AF9E78A68D2073DD04DF808ED67
:1012C00002F03FFD5DF808EB04D5026C012363F3E7
:1012D0000D320264026C0023D20444BF436C23F03D
:1012E000060343646FF0220300220B60C2631648BA
:1012F000D0F80423D20603D081421DD1806814E0C7
:10130000814211D0114A91420AD0114A914213D11F
:10131000D0F80423D20607D000F5007291420BD119
:10132000D0F80403C00607D4886810F0405F03D1EA
:10133000886840F080408860002001B0704700BF9E
:101340001800002040420F00002001400022014010
:1013500000210140F8B504460020554A08210090BC
:10136000D4E9176015683768814039420CD022688B
:1013700013685B0708D5136823F004031360B1609A
:10138000A16D41F00101A16501218140394208D0E0
:1013900022685269120604D5B160A16D41F00201C4
:1013A000A16504218140394208D022681268920761
:1013B00004D5B160A16D41F00401A1651021814007
:1013C000394217D020680268120713D5B16002684D
:1013D0000168520306D4C90506D4016821F008014A
:1013E000016001E0080301D4616C00E0E16C09B127
:1013F00020468847216E202000FA01F23A4236D07A
:1014000020680368DB0632D5B260A36B0268052B47
:1014100017D122F016020260426922F08002426176
:10142000626C0AB9E26C1AB1026822F0080202602A
:101430003F208840B060002060630120A063616DA0
:1014400032E0016852030AD4C9050CD4016821F0C6
:1014500010010160002060630120A06303E0080325
:1014600001D4A16C00E0216C09B120468847A06D31
:10147000E8B1A06DC00716D005214FF41650A16346
:10148000B5FBF0F021680A6822F001020A60009AB8
:1014900001328242009202D80A68D207F7D10120B5
:1014A000A06300206063216D09B120468847F8BD24
:1014B000180000202DE9F041044600F08FF99CB19E
:1014C00005460220A063002021686063086820F0C0
:1014D000010008600868C00709D000F07FF9401BD0
:1014E000052839D82168F5E70120BDE8F0810868B2
:1014F000271D304AE8CF00EA020ED4E9050CD4E9F2
:10150000072843EA0E032B4333433B431843636AE4
:1015100040EA0C00104340EA0802042B04D1D4E94D
:101520000B05104340EA05020A60042B486920F0CD
:10153000070040EA03022CD1D4E90A63324343B3E3
:10154000BCF5005F0CD0BCF1000F18D1022E19D0F1
:10155000012E0ED0002E14E003252027032024E0C6
:10156000032E16D8012540270120DFE806F01E0BC8
:101570001E02A3F1C070B0FA80F0400904E0032E0F
:1015800003D306D1C3F3006018B101254027012021
:101590000BE020464A61FFF72BFA216E3F2201251E
:1015A000002702FA01F181600020A765A563BDE86C
:1015B000F08100BF3F8010F0B0B50446406B0128B9
:1015C00024D00120E56D6063A06B01281CD10220AE
:1015D000A0630020A0652046FFF724FA226E3F2377
:1015E0002068616C03FA02F2AA60026842F01602F7
:1015F000026019B1016841F008010160016841F021
:10160000010101600020B0BD002060630220B0BD78
:10161000B0B5044600F0E2F805469248611C406807
:1016200018BF044400F0DAF8401BA042FAD3B0BD62
:101630002DE9FC4F5E4A08244FF0010B4FF00008E3
:101640004FF0000E90425B4A08BF072402444FEA65
:10165000B223072B38BF4FEAB22400940022BEF118
:10166000200F08BFBDE8FC8F0F680BFA02F6374267
:1016700000F090804F68122F00F292800BFA07F46E
:1016800014F0061F00F08C8003234FEA420A03FA8D
:101690000EF48368CD686FEA040CA34305FA0EF5D7
:1016A0002B4383603B0945689340B5432B4343601C
:1016B000C4688D6804EA0C0405FA0AF52C43C4607A
:1016C00047F01004122C12D108F01C040F2303FA67
:1016D00004F56FF0030303EA52070744D7F820909C
:1016E0000B6929EA0505A3402B433B624F68036859
:1016F00007F0030404FA0AF403EA0C03234303602B
:10170000FB0047D500232E4C2B4F22F003050193FD
:101710002368BC463D4443F48043236023680F2480
:1017200003F48043019308F00C03019F9C40254F74
:10173000B946EF5927EA0404009F07FA03F323434D
:1017400045F80930DCF800304D6843EA0604EF0341
:1017500058BF23EA0604CCF80040AF03DCF804309D
:1017600043EA060458BF23EA0604CCF80440EF021B
:10177000DCF80830114F43EA060458BF23EA060498
:10178000CCF80840AD023B6843EA060458BF23EAA0
:1017900006043C6008F104080EF1020E01325EE717
:1017A0000323F24603FA0EF46FEA040C80E700BF4D
:1017B000001C02400000FEBF003C01400C3C014008
:1017C0004438024008FCFFFF0069084018BF0120B0
:1017D0007047002A08BF0904816170470548006806
:1017E000704700BF1F48034940680A6810440860FA
:1017F000704700BF4827002080B50B48016841F4BE
:1018000000710160016841F480610160016841F488
:1018100080710160032000F077F8002000F006F8E6
:1018200000F022F8002080BD003C024070B50D4E53
:1018300004464FF47A717068B1FBF0F0D049096842
:10184000B1FBF0F001F064FA01250F2C08D838B98B
:101850004FF0FF3021460022002500F02FF83460C1
:10186000284670BD0400002082B000200C49019081
:101870004A6842F480424A604A6802F48042019217
:10188000019A0090086840F080500860086800F0F5
:10189000805000900098042002B000F035B800BFDE
:1018A00040380240002806D4734602F0B0FA9E4643
:1018B000014A42F82010704700E100E0F0B5184BF3
:1018C0004FF0FF361C68C4F30224E51E84F00704C1
:1018D00038BF002506FA05F7BA43042C28BF0424B4
:1018E00006FA04F4A14300F00F04A940043C11439C
:1018F0002344044A09010C33B0F1FF3FC8BF8318E9
:101900001970F0BD00E400E005494FF6FF030A68D6
:101910001A4060F30A22034810430860704700BF72
:101920000CED00E00000FA05F8B50446006810F080
:10193000050F1ED03B4F0020814E3860FFF74EFF51
:1019400005463068000105D5FFF748FF401B022817
:10195000F7D92DE0D4E9010102F003FA0546306819
:10196000000105D4FFF73AFF401B0228F7D91FE01A
:10197000206880074FF0000044D5714E00902A4F38
:10198000306C40F080503064306C00F0805000903B
:101990000098386840F480703860FFF71FFF0546F4
:1019A0003868C00506D4FFF719FF401B0228F7D995
:1019B0000320F8BD306F10F4407010D0E16801F4DE
:1019C000407188420BD0306F184901220A60002212
:1019D00020F440700A603067306FC00713D1E068B0
:1019E0001349B268014000F4407322F4F8126FF317
:1019F0001F30B3F5407F08BF0A43B260316F084320
:101A000030670020F8BDFFF7E9FE054641F2883750
:101A1000306F8007E3D4FFF7E1FE411B0320B9429A
:101A2000F6D9EFE76800474200700040400E474299
:101A3000FFFCFF0F704700002DE9F041002857D050
:101A40003F4B04468846D3F8000400F00F0088425C
:101A500004D283F8008402F07EF949D1206881071E
:101A600011D5410703D5996841F4E0519960010708
:101A700003D5996841F460419960A1689A6822F0A1
:101A8000F00211439960C0072BD102F064F904D928
:101A900083F8008402F05FF92AD12068410705D558
:101AA000E1689A6822F4E05211439960000706D574
:101AB0002069996821F4604141EAC00098601C46A1
:101AC00000F064F8A1681F4AC1F30311515CC840DB
:101AD0002B4908601C480068FFF7A8FE0020BDE8FD
:101AE000F0816068811E022905D21968890107D436
:101AF0000120BDE8F08101281DD119688903F7D5BF
:101B000099681D4621F0030108439860FFF766FEBF
:101B1000064641F288376068A9682B4601F00C013F
:101B2000B1EB800FB1D0FFF759FE801BB842F2D95C
:101B30000320BDE8F08119688907D9D5E0E700BF27
:101B400000380240188000080400002001480121EC
:101B5000016070474C00474209480A490A4A006838
:101B60000968C1F38221515CC840704704480549A7
:101B7000054A00680968C1F34231515CC8407047AA
:101B800018000020083802402880000810B5134CC7
:101B9000606800F00C00082804D0042814BF104826
:101BA000104810BD226820680023400202F03F0266
:101BB0000C485CBF42F20040C0F2F4002168C1F35F
:101BC0008811A0FB0101FEF7FBFA21680222C1F394
:101BD000014102EB4101B0FBF1F010BD04380240BD
:101BE0000024F40040787D0110B5044C2068000604
:101BF00003D5FFF71FFF8020A07010BD0C380240F6
:101C00002DE9FC41002858D004460078BF4EC0079B
:101C10000BD0B06800F00C00042840F087803068DA
:101C2000800302D56068002847D02078800718D547
:101C3000B06810F00C0F07D002F0E4F840F08E808E
:101C40007068400200F18A803068800702D5E06841
:101C5000012832D12069316821F0F80141EAC00041
:101C60003060207800072BD4207840073BD4A76948
:101C700007B302F0C7F840F0A280012F1DD0E16940
:101C8000706800F480028A4217D1216A00F03F0296
:101C90008A4212D147F6C071626A014091420CD16A
:101CA000A16A00F440328A4207D1E16A00F0706014
:101CB000884202D10020BDE8FC810120BDE8FC8102
:101CC0006169934800296AD00121C0F8801EFFF79E
:101CD00085FD0546706F8007C6D4FFF77FFD401B6A
:101CE0000228F7D9C9E0306C10F080580AD10020E2
:101CF0000190306C40F080503064306C00F08050C7
:101D000001900198834F3868C0053AD4386840F490
:101D100080703860FFF762FD05463868C00530D432
:101D2000FFF75CFD401B0228F7D9A6E002F06AF835
:101D300003D1706840023FF572AF6068B0F5803F34
:101D400007D0B0F5A02F40F08280306840F48020AA
:101D50003060306840F48030306082E0E068002815
:101D60004CD06B4801210160FFF738FD0546306813
:101D700080073FF56FAFFFF731FD401B0228F6D912
:101D80007BE0A068012805D0052848D1306F40F0DD
:101D900004003067306F40F00100306749E00021F7
:101DA000C0F8801EFFF71AFD0546706F80077FF5AB
:101DB0005BAFFFF713FD401B0228F6D95DE05449E5
:101DC000002088460866FFF709FD0546022F0AD164
:101DD00047463068800153D5FFF700FD411B0320C3
:101DE0000229F6D967E7306880017FF563AFFFF716
:101DF000F5FC411B03200229F5D95CE7444800218A
:101E00000160FFF7EBFC0546306880077FF529AFDE
:101E1000FFF7E4FC411B03200229F5D94BE7316FA2
:101E2000002821F001013167316F21F00401316791
:101E300045D0FFF7D3FC054641F28837306F800765
:101E40004CD4FFF7CBFC401BB842F7D915E0316802
:101E5000002821F480313160316821F48021316023
:101E600045D0FFF7BBFC0546306880033FF5DDAE8B
:101E7000FFF7B4FC401B6428F6D90320BDE8FC81C1
:101E80001C341FCC0843D90340EA82104FF6FF727E
:101E9000914340EA0460A1F580310843706001205D
:101EA0003866FFF79BFC0446306880013FF502AFBF
:101EB000FFF794FC011B03200229F5D9FBE6FFF78D
:101EC0008DFC054641F28837306F800706D5FFF755
:101ED00085FC411B0320B942F6D9ECE6B8F1000FAE
:101EE0007FF4C5AE306C20F080503064BFE6FFF761
:101EF00075FC0546306880037FF597AEFFF76EFCF2
:101F0000411B03206429F5D9D5E600BF0038024003
:101F10000000474200700040006800EB810002654D
:101F2000704770B500684068030C00F03F05C0F3CF
:101F30000424C0F34236CB708D704C700E70CAB959
:101F4000020A24092D0900F00F06C0F3035002F025
:101F50000F0244EA840445EA850500EB800002EBA9
:101F6000440206EB45054A7003F00F028D7002EB48
:101F70004000C870002070BD70B50068836A4B6077
:101F800003696FF3DF338B600368402000EA13407E
:101F900003F07F05C3F30624C870C3F305408D70BA
:101FA0004C700870CAB92D091A0A1E0C03F00F03F1
:101FB000000905EB850502F00F0240EA800003EB03
:101FC00045038B70230903EB830302EB43024A7042
:101FD00006F00F0202EB40000870002070BD000008
:101FE00078B170B50446006A20B90020E06120464F
:101FF00000F032F801F0DFFF216820B10120042257
:1020000023E0012070478868124A261D104088602E
:102010006DCE28438D683043284388600B61086982
:1020200040EA0240086101F0F6FF04D401F031FFFC
:1020300021680028E2D1086C20F480200864A0699F
:102040000A6C1043012208640020FF234B622262C5
:1020500070BD00BFBFFF8FFF00680449884200D0F9
:102060007047034801210160704700BF002800400D
:102070003C0E47422DE9F04102F011F841D02062B8
:102080000120E06132B16878E978AE78000240EA78
:10209000014714E06E78DFF81C81F00642BF06F0BD
:1020A000EF0000F10A066E70E878C0470746304638
:1020B000C047000240EA0747A878C04706462068A4
:1020C000CA2141625321416220462D7802F0F6F880
:1020D00018B121680120042211E047EA06002168B6
:1020E00020F0C00040EA4530486001F094FF04D47D
:1020F00001F0CFFE21680028ECD10020012201F080
:1021000022FFBDE8F08100BF2DE9F04701F0C7FFD5
:102110004ED001F02FFE03D030B901F0A4FF06E04D
:1021200060B901F0A0FF0CE0E8784FEA0048697858
:102130002878AE78090241EA00490FE0E8784FEAD2
:1021400000482878DFF86CA0D04706466878D0476A
:10215000000240EA0649A878D0470646CA207862BD
:1021600053207862204602F0A9F818B121680120B6
:1021700004221BE049EA06000F4940EA0800084033
:1021800021680860886820F480208860D5E903020F
:1021900010438A681043886001F03DFF04D401F0C9
:1021A00078FE21680028E2D10020012201F0CBFE58
:1021B000BDE8F087994200087F7F7F00B0B50446F4
:1021C0000068C16821F0A001C160FFF707FB054668
:1021D0002068C068800606D4FFF700FB01F076FF98
:1021E000F6D90320B0BD0020B0BD0000F0B587B027
:1021F000044603200D466063606C03280AD14FF04B
:10220000805001F0E7FEA06B28B320688649816307
:10221000012029E065B3B5F5805FF0D0B5F5006F1A
:102220003CD100200021CDE90400206802F075F8BF
:10223000800136D404A9204602F072FB0028E0D1C8
:102240009DF81600400726D501F012FF0028D8D1CE
:10225000206802212EE094E80F00D4E905678DE89C
:10226000E00002F05DF800200121616307B0F0BDDD
:1022700000200021CDE90400206802F04EF8800122
:102280000FD404A9204602F04BFB0028B9D19DF8D9
:102290001600C00708D14FF08060B2E74FF0006031
:1022A000AFE74FF40060ACE701F0E2FE0028A8D1F0
:1022B0002068002102F0B0F8A3E700BFB0B5D0E974
:1022C0001942436CA50F0D70C4F383654D70C4F3C0
:1022D00001658D70250CCD70250A0D714C71140DA2
:1022E000CC80C2F303440C72C2F3C0344C72C2F30C
:1022F00080348C72C2F34034CC72C2F300340C735D
:102300000024012B4C7330D0002B40F0818040F62C
:10231000FC73012503EA8202C36E42EA93720A61EA
:10232000C26EC2F3C2630B75C2F302634B75C2F394
:1023300042538B75C2F38243CB75C2F3C2330B7623
:102340004FF4007303660B690C7E04F0070401333D
:102350000234A34043650C7A04F00F0405FA04F438
:102360008465640A6343C36512E0B0F86E3002F01E
:102370003F0243EA02424FF480630A614FF4007265
:10238000026682650A6903EB8222C2654265C26EFB
:10239000C2F380334B76C2F3C61302F07F028B7612
:1023A000CA76006FC20FC0F300430A77C0F34172D0
:1023B0004A77C0F382628A77C0F38352CA77C0F348
:1023C000405281F82020002281F8212081F822301B
:1023D000C0F3C03381F82330C0F3803381F8243058
:1023E000C0F3403381F82530C0F3003381F8263044
:1023F000C0F3812381F82730C0F30123C0B2400825
:1024000081F8283081F82900012081F82A0008E0AD
:102410000168054A8A630122816B41F08051816322
:1024200042631046B0BD00BFFF054000B0B500F1EB
:1024300044053CCD81E83C00426D0A61826D4A61F1
:10244000C26D006EC86100208A61B0BD10B504463F
:102450000068216D090402F0D2F820B1A16B084395
:10246000A063002010BD01F039FDC0F3432010BD72
:1024700010B580B10446406B20B90020E0612046D1
:1024800000F0EAF803206063204600F00DF80146F2
:10249000012011B110BD012010BD0021A1632163F5
:1024A0006063002010BD0000F0B58FB004460068E6
:1024B0000026762100220023CDE90066029100214A
:1024C00001F02EFF012570B9604F3E60206801F0D9
:1024D00038FF3D600496206801F0B6FF30B1012559
:1024E000656301F077FD28460FB0F0BD206801F06C
:1024F000C9FF60B10020A064206801F0A5FF00289A
:10250000EDD1A06C04F14406012804D00BE00120B9
:1025100004F14406A0642068002101F032FF10B1EC
:102520004FF08050DBE74B4D00214FF6FE77002047
:10253000049AB0B9BA4214D82068002101F021FFF2
:102540000028CCD12068294601F034FF0028E7D1CB
:1025500001F0C4FC049901310491C0F38071C00FF3
:10256000E6E704984FF6FE72904202D94FF0807071
:10257000B5E701203160ADF80E00206801F0C9FE1A
:1025800088B1606C032811D12068042101F0C5FED8
:10259000000DE06404A92046FFF790FE002841D01A
:1025A0004FF080504CE04FF0806049E0206801F02F
:1025B000E5FF002844D12068254D0021A847606729
:1025C00020680421A847A06720680821A847E06781
:1025D00020680C21A847C4F88000606C0328D3D081
:1025E00020680DF10E0102F023F848BB606C03284F
:1025F000CAD0BDF80E1020682165090401F0D3FF90
:10260000F0B920680021A847606620680421A84727
:10261000A06620680821A847E06620680C21A8472A
:102620002067B1E7216D206800230A0401F08EFFC6
:1026300030B994E8EF008DE8E00001F071FE002071
:1026400000287FF44CAF00254DE700BFA080254255
:102650001B430008000010C12DE9F04387B0044679
:1026600002A81421FDF7F6FD2068224DA8423DD1B5
:10267000002621484FF00C084FF00309022701966D
:10268000416941F400614161416901F400610191D6
:1026900001990196016841F004010160016801F0AF
:1026A0000401019101990196016841F0080101605E
:1026B000006800F0080001900198CDF81880CDE97D
:1026C000046903974FF4F850029002AC05F55C40A2
:1026D0002146FEF7ADFF0420CDE90598CDE903764C
:1026E0002146029005F56040FEF7A2FF07B0BDE865
:1026F000F08300BF002C0140303802402DE9F04F3C
:1027000087B01F46154689460446FFF767F8B9F1BA
:10271000000F0CD08046606B01280BD10021781986
:10272000A163E26D90420DD901F0D4FC05E001F007
:10273000BCFC02E0A06B40F00050A063012007B099
:10274000BDE8F08F01F086FB18BF6D0201F04CFE72
:1027500020B12168BD4A01F019FBF0E700204FF0DD
:10276000010A022605909020CDF818A00496039047
:102770004FF0FF30019078020290206801A901F02B
:10278000B6FD022F05D326632946206801F0AEFE70
:1027900005E0C4F830A02946206801F0BFFE50B122
:1027A0002168AA4A8A63A16B0843A0630120002123
:1027B00060632163C3E7DDF840A0DDF808B040F2B4
:1027C0002A362068426B416B32422AD1BBF1000F9E
:1027D00018BF11F4004015D0002509EB0506202D87
:1027E0000BD0206801F0B5FD010E30700435F1709A
:1027F000010C000AB1707070EFE7B146ABF1200B2D
:1028000040F22A36FEF7EAFFA0EB08005045D8D385
:1028100020688E498163A06B40F0004001F0BBFB53
:102820008DE7022F0ED311F480710BD0616C032958
:1028300008D001F049FF0146206819B1834A82633C
:10284000A06BB1E7416B09070BD4416B89070ED42C
:10285000416B890620D57D498163A06B40F0200043
:10286000A3E77A498163A06B40F008009DE77749B0
:102870008163A06B40F0020097E701F06AFDC9F8A0
:102880000000FEF7ABFFA0EB080050450ED2206819
:1028900009F10409ABF1040B416BBBF1000F18BF48
:1028A00011F40011E9D101F021FB48E720686749E4
:1028B0008163A06B40F0004077E700BF2DE9F04F47
:1028C00087B09B4616460F460446FEF787FF6FB15A
:1028D0008046606B01280CD100210BEB0600A16340
:1028E000E26D90420DD901F0F5FB05E001F0DDFB52
:1028F00002E0A06B40F00050A063012007B0BDE8EB
:10290000F08F01F0A7FA18BF760201F06DFD20B13B
:1029100021684E4A01F03AFAF0E7012006900020C3
:10292000CDE90400902003904FF0FF3001904FEA72
:102930004B200290206801A901F0D9FCBBF1020FE5
:1029400004D32020314601F0BFFA03E010203146C5
:1029500001F0ABFA50B121683C4A8A63A16B08438D
:10296000A0630120002160632163C7E7109DDDF8AB
:1029700008A040F21A396E462068426B416B12EA99
:10298000090F33D1BAF1000F18BF11F4804020D0E5
:102990004FF0000907EB0900B9F1200F14D00178BE
:1029A0000091427841EA02210091827841EA024195
:1029B0000091C07841EA006031460090206801F043
:1029C000DBFC09F10409E5E7AAF1200A074640F219
:1029D0001A39FEF703FFA0EB0800A842CCD3206809
:1029E0001A498163A06B01F0D6FA87E7BBF1020FA9
:1029F0000ED311F480710BD0616C032908D001F063
:102A000063FE0146206819B1104A8263A06BA6E7F5
:102A1000416B090708D4416B89070BD4416BC90688
:102A20000ED401F063FA69E708498163A06B40F0B6
:102A3000080095E705498163A06B40F002008FE72D
:102A400002498163A06B40F0100089E7FF05400058
:102A50007047406D7047F8B590B300240546846216
:102A6000406D00284FF0000004D128462C6500F08E
:102A70002BF8A86A0221696595E84E001A430F6891
:102A8000324327F040070F602B691A436B691A43E2
:102A9000AB6903F400763243EE6932432E6A324367
:102AA0001043086004206A6A00EA1340104348603B
:102AB000C86920F40060C8610120AC65686500E069
:102AC00001242046F8BD000070B586B0044601A878
:102AD0001421FDF7BFFB2168204881423CD100262C
:102AE0001F4900F5504000964A6942F480524A61FD
:102AF0004A6902F480520092009A00960A6842F0F5
:102B000001020A60096801F00101009105210591A7
:102B10000321CDE9036102210291E0210191009995
:102B200001A9FEF785FD0F4D0F4B4FF0C0624FF42A
:102B300080604021C5E90032C5E90216286105F12F
:102B400014001421FDF786FB2846FEF7B3FC08B1FC
:102B5000FDF7F2FFEC63A56406B070BD00300140E4
:102B60003038024010250020586402402DE9F84317
:102B70000446006D012802D10220BDE8F8834FF021
:102B800001091D4616460F46C4F85090FEF726FE72
:102B90008046606D01283ED1002F3ED0EEB3032069
:102BA00060650020A065E686A6862763A087A063EF
:102BB000C4E91000E087A1682068B1F5004F03D197
:102BC000016841F4804101600168490601D401F0C7
:102BD00005FAE2686168B2F5006F20D109B1012EF3
:102BE00001D101F08AF96E1CE08E90B301F0DAF9A0
:102BF00008D4FEF7F3FD002EF6D0A0EB0800A842A3
:102C0000F2D337E0216B31F8022BC2602163E08EF2
:102C10000138E086E8E702202DE001202BE009B131
:102C2000012E02D1397801F0FDF96E1CE08E80B1E1
:102C300001F0B8F908D4FEF7D1FD002EF6D0A0EBD4
:102C40000800A842F2D315E0216B097801F0EAF9F7
:102C5000ECE720462946424601F054FF08B1202007
:102C6000A065A06808B901F0DDF8A06D002818BFC4
:102C7000012000E0032001F055B9000070B50446C2
:102C8000006D012801D1022070BD01202065606D1A
:102C9000012826D139B332B3032000236065A36530
:102CA000E286A2862163A363C4E91033A387E38786
:102CB000A0682268B0F5004F03D1106840F480404E
:102CC0001060A06C0F4E0E4D0C32C0E914630E4B19
:102CD000C0E91035E38EFEF76FFC40B101F019FA40
:102CE00002E0022000E001200021216570BD206883
:102CF0000168490601D401F071F901F0B4F8F3E775
:102D0000B14A0008954A0008B74A00087047704762
:102D1000411E0020B0EB116F01D001207047044A22
:102D2000F023516003490B700721906011607047D8
:102D300010E000E023ED00E07047704710B5C36B72
:102D40000222012B2BD002640122C26302680B68AD
:102D5000546824F070041C439368B2F1804F5460AF
:102D600014D0C64CA24211D00E4CA2420ED00E4C32
:102D7000A2420BD00D4CA24208D00D4CA24205D06D
:102D80000C4CA24202D00C4CA24204D1496823F060
:102D900080031943916000220121C263016410463F
:102DA00010BD00BF00080040000C004000180040AB
:102DB00000000140004001400004014058B110B53E
:102DC0000446006C18B901F040F900F007F801F072
:102DD000A7F901F06EB80120704700001CB500682B
:102DE000A649884214D0B0F1804F18BF1CBD002006
:102DF0001C24012201901248016841F00101016088
:102E00000021006800F00100019001981C200FE0F3
:102E100000201D24002200900948016841F00201B1
:102E200001600021006800F00200009000981D2061
:102E3000FEF744FD2046BDE81C40FEF733BD00BF51
:102E4000403802400068C16841F00101C16072462B
:102E500001F044F9964603D0724601F02EF99646E9
:102E600000207047B0B501F0F4F81BD020640120B9
:102E70004FF67775E0632068024652F8083FAB438F
:102E800013600B682BB1102B03D0202B18BF302BF5
:102E900009D1106820F07000184340F0070010605E
:102EA00001F0F8F8B0BD402B0DD0502B15D0602BA1
:102EB0001DD0B3F5005F27D0702BF1D101F025F8BC
:102EC00040F07700EBE701F0C9F8226852F8080FEC
:102ED00040F0470020F03000E1E701F0BFF8226841
:102EE00052F8080F40F0570020F02000D7E74B6859
:102EF000CA68194602F07FF8226852F8080F40F0BD
:102F0000670020F01000CAE700F0FFFF40F48040A7
:102F1000C5E7704710B5044600680169890714D5F4
:102F2000C168890711D56FF0020101610121E161DA
:102F30008069800702D001F085F803E001F0A7F86E
:102F400001F061F80020E06120680169490715D5AA
:102F5000C168490712D56FF0040101610221E161E6
:102F6000806910F4407F02D001F06CF803E001F0BA
:102F70008EF801F048F80020E06120680169090737
:102F800014D5C168090711D56FF00801016104214A
:102F9000E161C069800702D001F054F803E001F05C
:102FA00076F801F030F80020E06120680169C90678
:102FB00015D5C168C90612D56FF01001016108214D
:102FC000E161C06910F4407F02D001F03BF803E0FA
:102FD00001F05DF801F017F80020E0612068016958
:102FE000C90709D0C168C90706D06FF001010161A6
:102FF000204600F02DF820680169090609D5C1684E
:10300000090606D56FF0800101612046FFF794FEA6
:1030100020680169490609D5C168490606D56FF0DF
:1030200040010161204600F02FF8206801698906FF
:1030300002D5C168890600D410BD6FF0200101617E
:103040002046BDE81040FFF778BE7047704700008B
:1030500000680A49884207D0B0F1804F0CD1094876
:10306000016881F4004106E00548007820B1054878
:10307000016881F002010160704700BF0004004058
:103080002000002014180240704788B110B5044693
:10309000C06B08B900F0A7FF00F07FFE206801694F
:1030A00021F490410161416921F02A0100F05BBFE8
:1030B0000120704710B586B0044601A81421FDF721
:1030C000C9F821681448814224D10021134A00F52F
:1030D00070400091536943F010035361536903F04A
:1030E00010030093009B0091136843F001031360E9
:1030F000126802F001020092072205920322CDE934
:103100000312022102914FF4C0610191009901A9BB
:10311000FEF78EFA06B010BD0010014030380240B4
:103120002DE9F8430446C06B202806D10E4639B17C
:1031300017462AB1A06B012805D10220BDE8F8830B
:103140000120BDE8F8834FF0000901201D46C4F8B6
:103150004490A0632120E063FEF740FB8046E784B3
:10316000A784C4F83890E08CF0B1E08C802142460E
:103170002B460138E0842046A76802F071F8B7F5C5
:10318000805F09D1B8B93288216920686FF35F2266
:10319000426039B10136E6E768B916F8010B2168DB
:1031A0004860E0E70236DEE72046402142462B46F3
:1031B00002F056F810B10320BDE8F8832020E06348
:1031C0000020BDE8F883FEE72DE9F84F04AFE64B99
:1031D00004221A604FF400329B461A604A00F02A1B
:1031E00028BFF021CB1D23F00703ADEB0304A54658
:1031F000030A00258D4204D26619635502357070AA
:10320000F8E7B2FBF1F9914209FB112813D9DF4D20
:103210001FFA88F221462846FFF730FD2846FFF7BF
:1032200018FC0328FAD00220A7F10C04CBF8000008
:10323000A546BDE8F08FD54E00251FFA81FA4D4511
:10324000E5D0304621465246FFF718FD3046FFF7DD
:1032500000FC0328FAD00135F1E700BF2DE9F04763
:10326000BCB0032900F29A800446DDE944981D466B
:103270001646DFE801F002284A6C0020002700F023
:10328000AFF900F094FD474800F078FE5046022167
:103290000022FEF79EFA00F0F5FEBC4D6E4600F0EF
:1032A000C9FE474575D00020F02803D0215C315479
:1032B0000130F9E700F0BFFD00F015FF0328FBD057
:1032C000F0340137EDE7012000F08AF900F06FFDDE
:1032D000344800F053FE00F08BFE00F0D3FEAB4DFF
:1032E0006E4600F0A7FE474553D00020F02803D0DB
:1032F000215C31540130F9E700F09DFD00F0F3FE50
:103300000328FBD0F0340137EDE7022000F068F924
:1033100000F04DFD234800F031FE00F069FE00F0A2
:10332000B1FE9A4D6E4600F085FE474531D0002033
:10333000F02803D0215C31540130F9E700F07BFD27
:1033400000F0D1FE0328FBD0F0340137EDE7032075
:1033500000F046F900F02BFD124800F00FFE00F0DF
:1033600047FE00F08FFE894D6E4600F063FE474534
:103370000FD00020F02803D0215C31540130F9E750
:1033800000F059FD00F0AFFE0328FBD0F034013708
:10339000EDE7504602210122FEF71BFA3CB0BDE8E2
:1033A000F08700BF00100240B0B5A04D04460020D9
:1033B00000216A882B8800F0EBF86888298841434F
:1033C0002046BDE8B040FFF7FFBE00BFB0B5F148F2
:1033D000012101604FF40031016000F0B5F87E4C2E
:1033E0000120A0474FF47A70FEF712F9CB20A047D6
:1033F0007A4D3920A8472C20A8470020A847342020
:10340000A8470220A847CF20A0470020A847C120F6
:10341000A8473020A847E820A0478520A8470020DB
:10342000A8477820A847EA20A0470020A847002006
:10343000A847ED20A0476420A8470320A8471220F2
:10344000A8478120A847F720A0472020A847C020F0
:10345000A0472320A847C120A0471020A847C52087
:10346000A0473E20A8472820A847C720A04786207D
:10347000A8473620A0474820A8473A20A047552013
:10348000A847B120A0470020A8471820A847B62089
:10349000A0470820A8478220A8472720A847F22055
:1034A000A0470020A8472620A0470120A847E020E9
:1034B000A0470F20A8473120A8472B20A8470C2061
:1034C000A8470E20A8470820A8474E20A847F1206B
:1034D000A8473720A8470720A8471020A84703205F
:1034E000A8470E20A8470920A8470020A847E120A8
:1034F000A0470020A8470E20A8471420A847032073
:10350000A8471120A8470720A8473120A847C12075
:10351000A8474820A8470820A8470F20A8470C2004
:10352000A8473120A8473620A8470F20A8471120D8
:10353000A0477820FEF76CF82920A0470020BDE8BE
:10354000B04000F04DB800BFB0B59F4C0125C82079
:103550002560FEF75DF84FF400302060C820FEF7CC
:1035600057F82560B0BD00BF181002401CB5074CCD
:103570008DF807000DF1070101222046FFF77EFBC1
:103580002046FFF766FA0328FAD01CBD1C2600204F
:103590002DE9F843DFF8409007462A209846164662
:1035A0000D46C8470D4C380AA047F8B2A047300A6C
:1035B000A047F0B2A0472B20C847280AA047E8B28E
:1035C000A0474FEA1820A0475FFA88F0A0472C20B8
:1035D0004946BDE8F8430847313600084D36000833
:1035E00070B50446362000F023F80120FEF710F8ED
:1035F000032C1AD84FF4A075F0264820DFE804F019
:103600001002070CF0254FF4A076282008E04FF4B4
:10361000A075F026882003E0F0254FF4A076E8207E
:1036200000F014F801484680058070BD0C000020B1
:1036300010B5D04C4FF4003121604FF4802121604F
:10364000FFF794FF0220206010BD00BF10B5C94CE9
:10365000042121604FF400312160FFF787FF022031
:10366000206010BD81B07D490A6802430A60096884
:1036700008400090009801B0704700BF2DE9F04F5E
:103680000B684FF001084FF0030E4FF00F0C93FA48
:10369000A3F2B2FA82F233FA02F456D008FA02F434
:1036A00013EA04074FD0D1F804B0ABF10103022BA9
:1036B00017D297FAA7F3D1E902498568B3FA83F3E1
:1036C0005E0009FB07F904FA06FA0EFA06F4A543B0
:1036D00045EA0A0585604568BD4345EA0905456038
:1036E00006E097FAA7F3B3FA83F35E000EFA06F446
:1036F0000D696FEA0409C468B54004EA09042C4363
:10370000BBF1020FC46016D13D0AFCB295FAA5F5D3
:10371000002C08BFB5FA85F34D699B009D400CFA5B
:1037200003F3002C4FF0200408BF2424075927EA94
:1037300003032B430351D1E900340568B44005EA83
:1037400009052C4304600132A5E70020BDE8F08F95
:1037500070B5094E05462A200C46B047284600F0B1
:103760001BF82B20B047204600F016F82C203146DD
:10377000BDE87040084700BFAD37000810B57D4C6C
:103780004FF4003121600421216001F025FA02206C
:10379000206010BD1810024010B50446000AFFF763
:1037A000EDFFE0B2BDE81040FFF7E8BF10B5714C87
:1037B0004FF4003121604FF48021216001F00CFAB8
:1037C0000220206010BD00BF18100240BFB5144891
:1037D000144A154B00244FF480310125CDE90244F1
:1037E000CDE900440462C0E90A340463C0E9002161
:1037F000C0E90244C0E90445C0E90645FDF728FCDC
:1038000008B1FDF799F90320694602900448CDE913
:103810000045FDF7A5FB08B1FDF78EF9BFBD00BF60
:10382000C8240020002001400100000FE0B5002066
:10383000002201900948016841F4800101600021E3
:10384000006800F48000019001983B20FEF736F8F4
:103850003B20BDE88C40FEF725B800BF3038024061
:1038600010B5034C0348611CFDF76AF9207010BDC8
:103870005C000020C08000082DE9F04F87B03C4C70
:10388000002610200696A0470420A0472020A0472D
:103890008020A04701204FF00108A04740204FF0B2
:1038A000400AA0470820A04732494FF47C104FF04F
:1038B0003C09324D324F08602F488B46C1F8000852
:1038C0000320C1F80094CDE90466CDE902803F20D1
:1038D000019001AC28462146B84728462146059666
:1038E000CDE901A6B8474FF400502146059602964F
:1038F0000190A5F50060B8470BF57A754FF0020A04
:1039000021462846CDF814A0CDE901A6B84728469F
:103910002146CDF81480CDE90366CDE90198B8477A
:103920004FF4E0702146CDF81480029601902846AD
:10393000B8474FF40070214605960296019028463C
:10394000B8470BF5FD6521460596CDE903A6CDE9FF
:1039500001A82846B8474FF40040CDE90466CDE9F8
:103960000286214601902846B84707B0BDE8F08F8F
:103970006536000818100240000002800010024066
:103980007D36000810B586B001A81421FCF762FC52
:103990001648174B0024FF217F220094C0E9003411
:1039A000C0E90221C0E904448461FEF719FB08B1B3
:1039B000FDF7C2F80A20CDE904448DF80640002244
:1039C000ADF80400094801A9FEF79EFB08B1FDF718
:1039D000B3F808486946002200900448FEF74AFB05
:1039E00008B1FDF7A9F806B010BD00BF742500208E
:1039F000002800400501011580B50348034902C0B5
:103A00001821FCF727FC80BD98250020002C0140E0
:103A100070B50F480F4E4FF4827500214FF40072BD
:103A200001230224C0E90065C0E90211C0E9044392
:103A3000C0E906210A22C0E90811C0E90A12FFF70D
:103A40000AF818B1BDE87040FDF776B870BD00BF48
:103A50001C2600200030014010B586B0144800211B
:103A600041F2873242F2CF034FF08044CDE9041196
:103A7000CDE90211CDE9001100F056F908B1FDF7CA
:103A80005BF84FF480500290094802A9FFF7EAF969
:103A900008B1FDF751F800206946CDE9000004485F
:103AA000FFF74CF908B1FDF747F806B010BD00BFAD
:103AB0007826002010B586B01348144C0021092246
:103AC00042F2CF03CDE90411CDE90211CDE9001195
:103AD00000F02AF908B1FDF72FF84FF4805002905A
:103AE000094802A9FFF7BEF908B1FDF725F8002043
:103AF0006946CDE900000448FFF720F908B1FDF759
:103B00001BF806B010BD00BFBC260020000400401A
:103B100010B50B480B4C4FF4E13300210C22C0E9E7
:103B20000043C0E90211C0E90412C0E90611FFF721
:103B3000ACFA18B1BDE81040FCF7FEBF10BD00BFE5
:103B40000027002000100140B0B5734C4FF48020D6
:103B5000A0600820A060102000F076F909D40120B0
:103B60000125FDF755FD2068400626D46B48056009
:103B700023E02068000607D400F02FF92068000633
:103B80001BD46648022117E02068C00507D400F066
:103B900024F92068C00510D4604803210CE0206897
:103BA000800507D400F019F92068800505D45B482A
:103BB000042101E05948002101600420A0604FF475
:103BC0000020A060102000F03FF907D400F005F9B4
:103BD0002068400623D4514805211FE020680006D4
:103BE00007D400F0FAF82068000618D44B480621E4
:103BF00014E02068C00507D400F0EFF82068C00585
:103C00000DD44648072109E02068800507D400F05C
:103C1000E4F82068800502D44048082101600420AF
:103C2000A0600820A0604FF4801000F00DF907D4C8
:103C300000F0D3F82068400623D4384809211FE05B
:103C40002068000607D400F0C8F82068000618D4E1
:103C500032480A2114E02068C00507D400F0BDF8FE
:103C60002068C0050DD42D480B2109E0206880058F
:103C700007D400F0B2F82068800502D427480C2150
:103C800001600420A0600820A0601020A0604FF414
:103C90000010A0602068400607D400F09EF820685D
:103CA000400624D41D480D211FE02068000607D4DB
:103CB00000F093F82068000619D418480E2114E08B
:103CC0002068C00507D400F088F82068C0050ED42D
:103CD00012480F2109E02068800508D400F07DF823
:103CE0002068800503D40D48102101600BE00B48CB
:103CF0000068032808D002280AD0012803D1BDE8B3
:103D0000B04000F01DBAB0BDBDE8B04000F0A6BAAA
:103D1000BDE8B04000F088BA101402405004002002
:103D2000FEE7FDF761FFFEE78161C0E90043C0E9FE
:103D300002120161FFF742B84FF478424FF6FF7369
:103D40007047026C40F201739A4302F5807202647C
:103D50004A6852057047D3F8000400F00F00404550
:103D60007047090741EA8010C6F8840001203860D6
:103D7000FDF734BD206201202768E061002AB868A1
:103D800000F040007047204600F0E6BA8A63A16B5D
:103D90000843A0630120606370472420E06320682B
:103DA000C16821F40051C160204601F0F9B93046E4
:103DB00029464A464346FFF7EBBB4FF40051FDF757
:103DC00003BD26FA05F02040B0FA80F149093942D6
:103DD000704753EC102BFCF7EFBA0120FDF718BC2D
:103DE00030460621224602F06FBA207D00F07F00A7
:103DF000207570470A20FCF78FBF206C40F001004F
:103E000020647047B06800F00C000828704700F08C
:103E10001F010122400902FA01F1704704464FF4E4
:103E200080607047002000902068C1680091806821
:103E300000900098704728463146F022FEF71EBFDA
:103E4000284480B2FDF782B8A0602020A0602068DE
:103E500040067047032060632068626CC1624FF4C3
:103E60000071012A7047416841F0200141604168BA
:103E700041F0020141600020704764216FF063034C
:103E8000B0FBF1F202FB030032237047044603F05B
:103E900007BC2046FEF792B9C16801918068019085
:103EA00001987047204603F0C1B92063206800F0F4
:103EB0003BBC01202064002010BDB8F80A00B8F80F
:103EC0000C1001FB00F670472063206800F014BC62
:103ED0002068416821F0200141607047206800217E
:103EE00000F01BBAC46B0546FDF778BC40F23A51AE
:103EF0008163012060630020704737F8021BC160B6
:103F00002763E08E0138E0867047D1E90103C96874
:103F1000184340EA0120116821F47F4108431060F2
:103F20001068704700212165C4F85490BDE8F883FB
:103F300000224FF6FF737047206C20F480702064DD
:103F4000206CC0047047FF234B620021E1612262B4
:103F500070474FF4FA510068B0FBF1F041F288313C
:103F60004843C04370474161C16841F40051C1609A
:103F7000002020216064E163216410BD042101223E
:103F80008246FDF726BC284603F03FBA0246286861
:103F90000068C0057047A0630120606300202063B3
:103FA00003207047206881688907704705F8200F53
:103FB000284603F09DBB0220CA212062206841628E
:103FC00053214162204600F079B904464FF48060E5
:103FD00040217047A16B0843A0637047016841F01E
:103FE0004001016070470020A0632046FFF762B8DF
:103FF0005046022100220027FDF7EBBB94F9140084
:10400000B0F1FF3F70472046FFF720B8DC21BE2209
:104010004FF482737047C86820F08000C8608868D9
:10402000800670470173206B01302063E08E0138F9
:10403000E08670474843782190FBF1F870472046AE
:1040400003F0E3B92046FEF764BF0020E06320469A
:104050007047C26B04460220012A70474B68CA6849
:10406000194600F0B7BF4FF0000885F8038070478D
:10407000216D2068090400F084B9A06D40F0200093
:10408000A0657047A9EB0600A8EB05017047204624
:10409000FEF7DBBF00200121E063216470470D467D
:1040A000C1690446022001297047A06B40F00060FE
:1040B00070472046642100F025BD016841F00101F0
:1040C000016070472046002101F0E8BD401BB0F5BB
:1040D0007A7F7047A06B40F000707047816801F0F4
:1040E0000701062970472846FEF7B3BC04F13001EA
:1040F0000123012602F0C4B801206065A06D0028EC
:104100007047B9F80C00B1FBF0F303FB1012002A62
:104110007047A06D40F01000A065012060657047F9
:104120000220211D2064206800F0EABEB7FBF0F1F8
:1041300001FB10710137B7FBF0F0704770470000CA
:104140007CB5294800210170284801702848017079
:104150004FF6FF70FFF728F94FF47840254C6421A3
:10416000BE228C2300902820A04723A0254D6E213D
:1041700000224FF4784300905020A847224E282078
:104180006421BE228C23B0474FF6E070A021BE22EE
:10419000C82300902820A0471CA0AA2100224FF687
:1041A000E07300904620A8472820A021BE22C82303
:1041B000B0474FF4FC60DC21BE224FF482730090C4
:1041C0002820A04714A0E62100224FF4FC630090B1
:1041D0004420A8472820DC21BE224FF48273B44635
:1041E00002B0BDE87040604722000020210000209E
:1041F00023000020AD09000853686F772054696DD3
:1042000065000000190D0008BD0A000853686F77AB
:10421000204250526174650053686F772050696383
:1042200074757265000000001FB51748007888B1EA
:10423000164801684A1E02600DD000200DF10604E8
:1042400013498DF80600204603F052FA1148214622
:1042500000F052FD1FBD012101601FBD1FB50A48BE
:10426000007880B109480DF1060401684A1C08492C
:10427000026000208DF80600204603F039FA054858
:10428000214600F039FD1FBD230000201000002052
:104290004E8B0008600400200928014698BF0921C0
:1042A000CAB20A23B2FBF3F202EB8203A1EB43038F
:1042B000591A084440EA0210C0B27047B0B504462B
:1042C0000068C168490610D44FF0FF31C160FDF7A6
:1042D00085FA05462068C068400606D4FDF77EFAD8
:1042E000FFF7F4FEF6D90320B0BD0020B0BDB0B595
:1042F00091E83C004262836245EA04030A69496925
:104300001A431143C26A22F0F7021143C16200202E
:10431000B0BD006800F00300704708444069704772
:10432000B0B51143049A446847F6FF651943114339
:10433000059AAC431143069A114321434160002082
:10434000B0BD80B5032101600220FDF761F90020B6
:1043500080BDD0F88000704770B591E83C0040F611
:10436000FF76234382602B43C2680969B243194335
:104370001143C160002070BD0968C0F880100020A2
:10438000704710B586B0FFF749FD059000200490F6
:10439000402003903720CDE9011001A9FFF7F3FC7D
:1043A0002046372141F2883206B0BDE8104000F0C7
:1043B000D3B9000010B586B0FFF730FD059000209E
:1043C0000490402003902920029006480843019061
:1043D00001A9FFF7D8FC204606B0BDE8104000F068
:1043E0006FBA00BF0000108010B586B0FFF716FD51
:1043F000059000200490402003901020CDE901108A
:1044000001A9FFF7C0FC2046102141F2883206B016
:10441000BDE8104000F0A0B910B586B0FFF7FEFC73
:10442000059000200490402003900620CDE9011063
:1044300001A9FFF7A8FC2046062141F2883206B008
:10444000BDE8104000F088B910B586B004460020E1
:10445000CDE90300CDE901004FF48060059001A98A
:10446000FFF791FC9748FFF774FD013006D2616BAE
:104470000906FAD5C520A063002001E04FF00040F6
:1044800006B010BD10B586B0FFF7C8FC059000203F
:10449000049040200390082002904FF4D5700190C2
:1044A00001A9FFF770FCF148FFF753FD013013D26B
:1044B000616B11F0450FF9D011F40061F6D1606B1A
:1044C00040070CD4606BC0070BD1606B400601D570
:1044D0004020A063002006E04FF0004003E00420ED
:1044E00000E00120A06306B010BD00BF10B586B08B
:1044F000FFF794FC059000200490402003901220C8
:10450000CDE9011001A9FFF73EFC2046122141F23E
:10451000883206B0BDE8104000F01EB910B586B074
:10452000FFF77CFC059000200490402003901120B0
:10453000CDE9011001A9FFF726FC2046112141F227
:10454000883206B0BDE8104000F006B910B586B05C
:10455000FFF764FC059000200490402003900720A2
:10456000CDE9012001A9FFF70EFC2046072141F209
:10457000883206B0BDE8104000F0EEB810B586B045
:10458000FFF74CFCC021059000200391022104900C
:10459000CDE9010101A9FFF7F6FB204606B0BDE811
:1045A000104000F067B910B586B0FFF737FC0590F2
:1045B00000200490C02003900920CDE9011001A93A
:1045C000FFF7E1FB204606B0BDE8104000F052B90D
:1045D00010B586B0FFF7F9FC059000200391332158
:1045E0000490CDE9010101A9FFF7CDFB204633215D
:1045F00041F2883206B0BDE8104000F0ADB810B509
:1046000086B0FFF70BFC059000200490402003903B
:104610000D20CDE9011001A9FFF7B5FB20460D21C2
:1046200041F2883206B0BDE8104000F095B80000B5
:10463000B0B586B00C4605464FF480604021059029
:104640000020039103210490CDE9010101A928462E
:10465000FFF782FEAA48FFF77CFC01301FD2696B8E
:1046600011F0450FF9D011F40061F6D1686B4007E5
:1046700018D4686BC00717D12869C0B2032817D1B6
:10468000C520A863686910F4604F13D0410415D4A5
:1046900000044FF4805058BF4FF4803006E04FF0D4
:1046A000004003E0042000E00120A86306B0B0BD94
:1046B0000120FBE7000C20800020F7E74FF40050BA
:1046C000F4E700BF1800002010B586B0FFF77DFCAE
:1046D0000590002003910C210490CDE9010101A96E
:1046E000FFF751FB034A20460C2106B0BDE81040FD
:1046F00000F032B800E1F50510B586B0FFF78EFB8B
:10470000059000200490402003901920CDE901106D
:1047100001A9FFF738FB2046192141F2883206B083
:10472000BDE8104000F018B810B586B0FFF776FB72
:10473000059000200490402003901820CDE901103E
:1047400001A9FFF720FB2046182141F2883206B06C
:10475000BDE81040AFF3008010B5034668484FF441
:10476000FA540068B0FBF4F050430130013804BF44
:104770004FF0004010BD5A6B12F0450FF6D012F406
:104780000062F3D1586B40075FD4586BC0075ED10D
:10479000C52098631869C0B288425BD15869344912
:1047A000084259D0002859D441005AD481005AD423
:1047B000C10044BF4FF4807010BD010144BF4FF4ED
:1047C000007010BD410144BF4FF4806010BDC101B5
:1047D00044BF4FF4006010BD010244BF4FF480504D
:1047E00010BD410244BF4FF4005010BD810244BFD0
:1047F0004FF4804010BDC10244BF4FF4004010BDD3
:10480000410344BF4FF4003010BD810344BF4FF457
:10481000802010BDC10344BF4FF4002010BD01042F
:1048200044BF4FF4801010BD410444BF4FF400104A
:1048300010BD810444BF4FF4800010BD00074FF449
:10484000000058BF4FF4803010BD042000E001206C
:10485000986310BD012010BD002010BD4FF0007006
:1048600010BD402010BD802010BD00BF18000020EA
:1048700008E0FFFDB7494FF4FA520968B1FBF2F1C5
:1048800041F288325143C943013110D2426B12F0D8
:10489000450FF9D012F40062F6D1416B490709D4F3
:1048A000416BC90708D1C5218163002106E04FF0A3
:1048B000004103E0042100E00121816308467047C4
:1048C000A4494FF4FA520968B1FBF2F141F288327F
:1048D0005143C94301310ED2426B12F0450FF9D05A
:1048E00012F40062F6D1416B042211F0040108BFFA
:1048F000C522826301E04FF000410846704700BFC7
:104900001800002010B5504C01202070FBF7E8FF84
:1049100018B9207800F0FE002070207810BD00BF8C
:104920002DE9F04389B088460546FCF757FF064657
:1049300000200821CDE900002868FFF755FD002878
:104940004DD1296D28680904FFF71BFD002846D1C9
:10495000012008900020079002200690302005904A
:10496000082004904FF0FF300390286803A9FFF758
:10497000BEFC2868FFF72CFE88BB002740F22A44C3
:10498000E94629684A6B486B22420FD1800205D55F
:104990000846FFF7DEFC49F827000137FCF71EFF49
:1049A000801B01304FF00040EBD118E0000710D41D
:1049B000486B80070FD4486B80060ED440F23A5003
:1049C0008863DDE9000109BA00BAC8E900100020D7
:1049D00005E0082002E0022000E02020886309B002
:1049E000BDE8F08310B5184C01202070FBF780FF64
:1049F00010B9FFF787FF2070207810BD10B588B080
:104A000011480078C0070CD103290CD814460020A7
:104A1000DFE801F018020B116846FBF75DFF06980E
:104A20000EE003200EE004200CE06846FBF754FF84
:104A30000798208005E06846FBF74EFF0798400A7C
:104A40002060002008B010BD1400002080B508468A
:104A500011461A464FF0FF33FBF770FF08B10120F3
:104A600080BDFBF73DFF0028FBD1002080BDFFF794
:104A700049BF80B5084611461A464FF0FF33FBF791
:104A80006BFF08B1012080BDFBF72AFF0028FBD196
:104A9000002080BDC06B01684A6822F003024A60B2
:104AA000816D41F01001816501214165FDF7D0BFA5
:104AB000C06BFEF72CB9BCB5FFF714FAFFF766FA26
:104AC0001BD4FFF705FA416821F002014160FFF7AE
:104AD000F0FA08B1FFF7D1FAA06820B900200190E0
:104AE0002068FFF7D9F90020E086FFF705FB04D026
:104AF0002046BDE8BC40FDF7ABBF2046BDE8BC404A
:104B0000FEF704B91CB50446124813460A4612497A
:104B10000068B0FBF1F04FF47A714843019060688F
:104B2000B0F5827F0AD12046802100F017F870B1DD
:104B3000A06D40F02000A06503201CBD019830B19D
:104B4000019801380190206880680006F6D40020A2
:104B50001CBD00BF1800002000366E012DE9F04199
:104B6000984616460F460446551C20688068384013
:104B7000B8422ED1002DF8D0FCF730FEA0EB080093
:104B8000B042F2D3D4E900014268B1F5827F22F04D
:104B9000E00242600AD1A168B1F5004F02D0B1F540
:104BA000806F03D1016821F040010160A16AB1F575
:104BB000005F07D1016821F400510160016841F4F0
:104BC0000051016000202065012060650320BDE8E0
:104BD000F0810020BDE8F081E0B58DF807000448C1
:104BE0000DF1070101220123FDF7C0FF8CBD00BFBD
:104BF0001C26002070470000BCB5044614480191F3
:104C000001A900220025FDF78CF99DF8040025700C
:104C10000138C1B206298FBF0EA140B213A151F8CD
:104C200020109DF807209DF805309DF8060002F53C
:104C3000FA620090204602F05BFD2D2019214FF40E
:104C400078424FF6FF730094FCF766F8BCBD00BFD6
:104C50007425002025642F253032642F25303264DE
:104C600020556E6B6E6F776E000000006C8B000835
:104C7000C18B0008AA8B0008D68B0008588B00084F
:104C8000948B0008808B0008B0B588B004460D985E
:104C9000002507900C98069003A80EC003A90022D7
:104CA0000F48FDF769F9049964209DF80C209DF8E0
:104CB0000D30257048439DF80E10000ACDE9001014
:104CC00008A1204602F014FD462032214FF478421C
:104CD0004FF6FF730094FCF71FF808B0B0BD00BF9B
:104CE00074250020253032643A253032643A25306C
:104CF00032643A25303264002DE9F04F87B001224A
:104D0000044601F047FC20B13A48016801390160CE
:104D10006CE0DFF87C89012500200DF116064FF0CC
:104D2000000B4FF00009A9B2A0295CD858444FF0FD
:104D3000000A4FF0000B04958144CDF80C90BAF5B1
:104D4000707F3AD009EB0B052046294601F0E7FABF
:104D5000FFF746F89DF818700A2F0AD1291D204642
:104D600001F0DDFAFFF73CF89DF816009DF81710EA
:104D70000CE09DF819100A290FD1691D204601F099
:104D8000CEFAFFF72DF89DF816103846FBF7F5FD23
:104D900008F80A000BF1020B0AE09DF81A50384699
:104DA000FBF7EBFD08F80A000A2D08BF0BF1020B18
:104DB00009F105090AF1010AC1E7049DF021002269
:104DC000680080B2CDE900106FF00100002100EB17
:104DD000450083B24046FEF741FADDF80C900135FC
:104DE0004FF496509FE7204601F05AFA07B0BDE80D
:104DF000F08F00BF10000020FCF7F4BCB0B596B0F7
:104E0000002414210F94CDE90D4405A8FBF722FAE4
:104E10002C48CDE90344CDE9014400940225016802
:104E200041F080510160006800F0805000900098CF
:104E300000942548016841F480410160006800F455
:104E40008040009000981495072015904FF4A870AA
:104E50001390192012904FF48000CDE910500120DA
:104E60000C904FF480300B9005200A900AA8FCF7B4
:104E7000C7FE18B1EFF3108072B6FEE74FF4805012
:104E8000052109904FF4A05008900F20CDE9065459
:104E9000059005A8FCF7D0FD18B1EFF3108072B6AD
:104EA000FEE74FF4807004900220019001A8FCF707
:104EB0003BFD18B1EFF3108072B6FEE7FCF746FE3B
:104EC00016B0B0BD40380240007000400548D0F830
:104ED000801041F47001C0F880104FF00061016053
:104EE000704700BF08ED00E00148FEF713B800BFAF
:104EF000782600200148FEF70DB800BFBC26002030
:104F000070B5294A0368904218BFB0F1804F3ED176
:104F10004C6823F070032343904220D0B0F1804FBF
:104F20001DD0224CA0421AD0214CA04217D0224CB6
:104F3000A04214D0214CA04211D0214CA0420ED04E
:104F4000204CA0420BD01B4CA04208D01E4CA042CB
:104F500005D01E4CA04202D01D4CA04203D1CC680B
:104F600023F4407323434E6923F080030C688D685B
:104F7000334390420360C562846203D002F58062CD
:104F8000904201D1096901630121416170BD074C63
:104F9000A042BDD0064CA042BAD0064CA042B7D029
:104FA000054CA042B4D0B9E7000001400004004025
:104FB0000008004000040140000C004000180040C0
:104FC000001C00400020004000400140004801401B
:104FD0000044014010B5036A046A24F0010404622D
:104FE000846924F0F00444EA0212826123F00A0288
:104FF0001143016210BD036A23F010030362836949
:1050000023F4704343EA0232036A826123F0A00270
:1050100042EA01110162704770B55F4C002510260D
:10502000300604BFA8B270BD204608210122FCF75B
:10503000D0FB204608210022FCF7CBFB2046402174
:10504000FCF7C2FB002818BF012040EA4505013EDD
:10505000E6E700BF000000002DE9F0474E4E4F4D3F
:105060008046082101223046A847304620210122EF
:10507000A847304610210122A847304610210022BF
:105080000024A847B246A6F500690026B6F57A7F47
:1050900012D04846FEF791FE80B9902000F05EF8ED
:1050A000FFF7BAFF0746D02000F058F83C44FFF75E
:1050B000B3FF05440136E9E74FF47A7650461021F4
:1050C0000122FCF786FBB6F57A7F03D14846FEF74E
:1050D00074FE20B100200021A8F800002AE04FF45F
:1050E0007A7740F21111B5FBF7F0404280B2B0FB85
:1050F000F1F0C0F1E300FBF740FA9FED110B55EC26
:10510000106B32462B46FBF757F9FBF754FAA8F819
:105110000000B4FBF7F0CC21404280B2B0FBF1F0CC
:105120000F38FBF72AFA32462B46FBF745F9FBF717
:1051300042FA0121A8F802000846BDE8F08700BF46
:105140008FC2F5285C8FF23F80B50348FEF735FE2D
:10515000B0FA80F0400980BD00080240F8B50E4D5D
:1051600004460821002208262846FCF732FB0B4F94
:10517000300608BFF8BDE0B22021C2092846B84772
:10518000284608210122B847284608210022B847AE
:10519000013E6400ECE700BF00100240D317000896
:1051A000B0B50446006804F108030ECB056925F488
:1051B000405519432A4349F20C650261C26863698C
:1051C0001943E369AA4319431143C1604169A269C4
:1051D00021F4407111434161204940F48060B3F5EE
:1051E000004F04D1884207D1FCF7C0FC06E088429A
:1051F00019D1FCF7BBFC18E0FCF7AEFC6368192181
:10520000A0FB01015A00DB0FFAF7DAFFFEF735FECB
:1052100003EBC000B0FBF1F14FF4F87000EA41007D
:1052200001F0070113E0FCF797FC63681921A0FB6C
:1052300001019A009B0FFAF7C3FFFEF71EFE03EB76
:105240000010B0FBF1F101F0F00001F00F0100EBF4
:105250000210084321688860B0BD00BF00140140FF
:105260002DE9F0411D4690460F4604465E1C20681D
:1052700001683940B94219D0002EF8D035B1FCF799
:10528000ADFAA0EB0800A842F1D92068C16821F46A
:10529000D071C160416921F00101416120200021EC
:1052A000E063A16320640320BDE8F0810020BDE835
:1052B000F081FEE72DE9F041AAB0FEF787F84FF63E
:1052C000FF704FF6FF78FEF76FF800200026FEF71C
:1052D00087F9DFF8A4030F21FEF72AFE00901420BF
:1052E000FBF71AFDDFF8940302F084FEDFF8900369
:1052F000012101220125FCF70FFEDFF88803FDF7ED
:10530000A1FDDFF88403FDF79DFDDFF88003FBF7C7
:10531000B3FFDFF87C03DFF87C4306704FF47A704C
:105320002570FCF775F94FF6FF702670FEF73CF814
:105330001FA8D9A12122FAF774FFDFF880034FF6E6
:10534000FF7302900FF27430D0E901128089CDE929
:105350000312ADF814000FF274300F2100220090F8
:10536000FEF748FD0FF2843002F044FEDFF8AC0394
:105370000FF2AC31012201F0E5F8C0B12546DFF8AB
:10538000A41305F8206F55F81C2C284602F0B0F93C
:105390000A202821FEF7D0FC0095FBF7BDFC55F84C
:1053A0001C1CDFF8840302F093F901250BE0DFF801
:1053B0007C032821FEF7BCFD00250090FEF71AFDB6
:1053C000DB4802F017FEDB4802A90A2201F0E2F8EE
:1053D00048B1D9484121FEF7AFFC0090FEF70AFD25
:1053E000D648012507E0D6484121FEF7A1FD0090EF
:1053F000FEF700FDD34802F0FDFDCE481FA929AB02
:10540000212201F029FB58B1CF485A21FEF794FC24
:105410000090FEF7EFFCCD4802F0ECFD01250DE019
:10542000CB485A21FEF784FD0090FEF7E3FCC94803
:1054300002F0E0FDC8481FA902F04AF9BD4800F09B
:105440002FFFC0B100202546C44E05F8200F55F8A7
:105450001C2C2846314602F04BF90A207321FEF736
:105460006BFC0095FBF758FC55F81C1C304602F00D
:105470002FF9012509E0BA487321FEF759FD009084
:10548000FEF7B8FCB74802F0B5FDAA4802A9012210
:1054900001F080F8606098B1024600202546B249CC
:1054A000FEF784FD0A208C21FEF746FC0095FBF7F1
:1054B00033FC55F81C1CAD4802F00AF9012509E03F
:1054C0009F488C21FEF734FD0090FEF793FC9D4829
:1054D00002F090FD974806A928AB642201F076F906
:1054E000606098B1024600202546A149FEF75EFDA6
:1054F0000A20A521FEF720FC0095FBF70DFC55F8CE
:105500001C1C9C4802F0E4F801250DE09A48A521F6
:10551000FEF70EFD0090FEF76DFC984802F06AFD64
:10552000974806A902F0D4F8F74800F0B9FE606089
:1055300098B10246002025469249FEF737FD0A2021
:10554000BE21FEF7F9FB0095FBF7E6FB55F81C1CA6
:10555000824802F0BDF8012509E08148BE21FEF72E
:10556000E7FC0090FEF746FC7E4802F043FD02A8EF
:1055700001F023FA6060A0B102460020824904F8DD
:10558000200F204602F0B4F80A20D721FEF7D4FB02
:105590000094FBF7C1FB54F81C1C7C4802F098F8FF
:1055A0000AE07B48D721FEF7C3FC0090FEF722FCFF
:1055B000784802F01FFD55B17748F021FEF7BCFB9B
:1055C0000090FEF717FC754802F014FDFEE77448E2
:1055D000744DF021FEF7ACFC00900A20A8477248F9
:1055E00002F008FD4FF47A70FCF712F84FF6FF70E6
:1055F000FDF7DAFE4FF478406C4E6421BE228C2316
:1056000000902820B047B8486E2100224FF478431C
:1056100000905020A847664F28206421BE228C238A
:10562000B847A8F11F00A021BE22C82384B22820B9
:105630000094B047AE48AA2100222346009046209D
:10564000A8472820A021BE22C823B8474FF4FC60F9
:10565000FEF7DCFC00902820B047A648E621002297
:105660004FF4FC6300904420A8472820FEF7CEFCAE
:10567000B8472AB0BDE8F081CC8A000864890008E8
:105680007425002078260020BC260020C824002095
:105690009000002020000020546869732069732066
:1056A00053544D33322074657374696E6720776983
:1056B00074682046617446730000000053544D33F3
:1056C00032637562652E7478740000002A2A2053B4
:1056D000544D3332437562654D58204661744673AC
:1056E0002054455354202A2A000000002A2A2A2A3E
:1056F0002A2A2A2A2A2053544D3332437562654D93
:10570000582046617446732054455354202A2A2A4F
:105710002A2A2A2A2A2A200D00000000901400209C
:10572000303A0000B48A00080F880008858A000813
:105730005089000860040020078A0008CC8800080F
:10574000478A00080F890008F0890008B48800081B
:105750002F8A0008F6880008A08800085A880008E8
:105760005E8A000827890008988A000829880008AE
:10577000E68A0008428800081D8A0008E3880008BD
:105780008D880008FC8A0008138B000873880008C5
:10579000718A00083B890008D28900089A890008AC
:1057A000B8890008190D000880890008AD090008B3
:1057B000BD0A00082DE9F04387B0FFF7C5FC0028BB
:1057C00000F08F8006A8FFF747FC012840F0898091
:1057D000BDF81880BDF81A90A8F12907942F2BD88E
:1057E000A9F16500262827D828206421BE228C2311
:1057F000FBF72AF93C486E2148F210424FF47843F7
:1058000000905020FBF788FA384D012005F1200662
:10581000687088B1A9683046FFF7EEF905F10C030E
:10582000D5E906040ECBCDE900043046FFF72CFA8B
:10583000FEF78AF96878ECE7942F21D8A9F1A10046
:1058400026281DD82820A021BE22C823FBF7FCF85B
:105850002748AA2148F210424FF6E07300904620F4
:10586000FBF75AFA214D012005F12006A87038B146
:1058700030460521FBF788F9FEF766F9A878F6E7C8
:10588000942F29D8A9F1DD00262825D82820FEF755
:10589000BDFBFBF7D9F81748E62148F210424FF458
:1058A000FC6300904420FBF737FA104D01200DF106
:1058B0000E0612A1E87000208DF80E000E48026856
:1058C000304601F015FF10483146FFF715FAE87829
:1058D00010B1FEF739F9FAE70CA041464A4601F04B
:1058E000F7FE07B0BDE8F0832B8B000820000020F6
:1058F000428B0008358B000810000020506963259A
:10590000642E74787400000060040020256409256A
:10591000640D0A00B0B504464FF0FF30606300200C
:10592000E070FEF78CFB08B10420B0BDB4F836027D
:105930004AF6552188421CD194F83800E92805D050
:10594000EB2818D194F83A00902814D104F16E0095
:1059500001F034FD094D20F07F40A84207D004F14A
:105960008A0001F02BFD05F14C51884203D1002043
:10597000B0BD0320B0BD0220B0BD00BF4641540001
:105980000246107820B10132884208BF7047F8E71C
:1059900000207047F0B5694B00220024202A11D066
:1059A0009D5865B10668B5420AD19D1887686E6832
:1059B000BE4205D1AE684769BE4201D10AE001246A
:1059C0001032EBE71222002C18BF0022881E18BFED
:1059D0001046F0BD09B11020F0BDA889A0F5807077
:1059E000B0FA80F040090001F0BD00BF10B5534A85
:1059F00000210023202B08BF10BDD458844208BFCB
:105A0000D1501033F6E700BF0268C36A9089B1FB3A
:105A1000F0F05189B0FBF1F0191D0A6822B19042F3
:105A200004D3801A0831F8E7002070474968084419
:105A30007047C2690239023A91423DBF026B408908
:105A400001FB0020002070472DE9F04104688846E2
:105A5000074641B13846414601F0E8FB022809D229
:105A60000120BDE8F081656915B1E069854207D381
:105A7000012505E0411C1AD0E1694546884231D331
:105A80002E46E0690136864228BF022601D3022D48
:105A90000AD33846314601F0C9FB411C22D050B12F
:105AA00001281FD0AE42ECD10020BDE8F0814FF0BC
:105AB000FF30BDE8F081204631464FF0FF3201F063
:105AC000C0FC0146B8F1000F06D029B92046414676
:105AD000324601F0B6FC014631B10120012908BF70
